:020000040800F2
:100000000000022091260008352500083B25000845
:1000100041250008472500084D2500080000000084
:100020000000000000000000000000005325000850
:1000300061250008000000006F2500087D250008EC
:10004000E1260008E1260008E1260008E126000874
:10005000E1260008E1260008E1260008E126000864
:10006000E1260008E1260008E1260008E126000854
:10007000E1260008E1260008E1260008E126000844
:10008000E1260008E1260008E12600080000000043
:10009000000000000000000000000000E126000851
:1000A000E1260008E1260008E1260008E126000814
:1000B000E1260008E1260008E1260008892500085D
:1000C0009D250008E1260008E1260008B12500086A
:1000D000E1260008E1260008E126000800000000F3
:1000E000E1260008E1260008E126000800000000E3
:1000F000000000000000000000000000E1260008F1
:1001000000000000E1260008E1260008C5250008DF
:1001100000000000000000000000000000000000DF
:10012000D9250008E1260008ED250008E126000891
:10013000E1260008000000000000000000000000B0
:10014000000000000000000000000000E1260008A0
:10015000E1260008E1260008E1260008E126000863
:10016000E1260008E1260008000000000000000071
:10017000000000000000000000000000000000007F
:1001800000000000E1260008000000000000000060
:08019000E1260008E126000849
:1001980010B5054C237833B9044B13B10448AFF3B9
:1001A80000800123237010BD7000002000000000B3
:1001B800707E000808B5034B1BB103490348AFF331
:1001C800008008BD0000000074000020707E000858
:1001D80053B94AB9002908BF00281CBF4FF0FF31A6
:1001E8004FF0FF3000F074B9ADF1080C6DE904CEA2
:1001F80000F006F8DDF804E0DDE9022304B07047FA
:100208002DE9F047089D04468E46002B4DD18A42C1
:10021800944669D9B2FA82F252B101FA02F3C2F1F4
:10022800200120FA01F10CFA02FC41EA030E944085
:100238004FEA1C48210CBEFBF8F61FFA8CF708FBA6
:1002480016E341EA034306FB07F199420AD91CEB7E
:10025800030306F1FF3080F01F81994240F21C81B0
:10026800023E63445B1AA4B2B3FBF8F008FB1033F8
:1002780044EA034400FB07F7A7420AD91CEB04042D
:1002880000F1FF3380F00A81A74240F207816444FD
:10029800023840EA0640E41B00261DB1D440002382
:1002A800C5E900433146BDE8F0878B4209D9002DE6
:1002B80000F0EF800026C5E9000130463146BDE870
:1002C800F087B3FA83F6002E4AD18B4202D38242DA
:1002D80000F2F980841A61EB030301209E46002D89
:1002E800E0D0C5E9004EDDE702B9FFDEB2FA82F2DE
:1002F800002A40F09280A1EB0C014FEA1C471FFA3C
:100308008CFE0126200CB1FBF7F307FB131140EA22
:1003180001410EFB03F0884208D91CEB010103F1EF
:10032800FF3802D2884200F2CB804346091AA4B2B1
:10033800B1FBF7F007FB101144EA01440EFB00FE85
:10034800A64508D91CEB040400F1FF3102D2A645EA
:1003580000F2BB800846A4EB0E0440EA03409CE789
:10036800C6F12007B34022FA07FC4CEA030C20FA36
:1003780007F401FA06F31C43F9404FEA1C4900FA56
:1003880006F3B1FBF9F8200C1FFA8CFE09FB1811D3
:1003980040EA014108FB0EF0884202FA06F20BD946
:1003A8001CEB010108F1FF3A80F08880884240F296
:1003B8008580A8F102086144091AA4B2B1FBF9F0DA
:1003C80009FB101144EA014100FB0EFE8E4508D9D5
:1003D8001CEB010100F1FF346CD28E456AD902385A
:1003E800614440EA0840A0FB0294A1EB0E01A1423F
:1003F800C846A64656D353D05DB1B3EB080261EBAD
:100408000E0101FA07F722FA06F3F1401F43C5E986
:10041800007100263146BDE8F087C2F12003D840BC
:100428000CFA02FC21FA03F3914001434FEA1C47FE
:100438001FFA8CFEB3FBF7F007FB10360B0C43EAF0
:10044800064300FB0EF69E4204FA02F408D91CEBA0
:10045800030300F1FF382FD29E422DD9023863449E
:100468009B1B89B2B3FBF7F607FB163341EA03413E
:1004780006FB0EF38B4208D91CEB010106F1FF388D
:1004880016D28B4214D9023E6144C91A46EA004684
:1004980038E72E46284605E70646E3E61846F8E616
:1004A8004B45A9D2B9EB020864EB0C0E0138A3E75F
:1004B8004646EAE7204694E74046D1E7D0467BE740
:1004C800023B614432E7304609E76444023842E7B8
:1004D800704700BF90B59BB000AFF860B9603B6053
:1004E8001346FB8000237B66FB68002B00F0078126
:1004F800BB68002B00F00381FB88002B00F0FF8015
:10050800FB881B0C1B04002B40F0F9803B68002B78
:1005180000F0F580B7F87830002B00F0F080B7F8DD
:1005280078301B0C1B04002B40F0E980FB6F002B7C
:1005380000F0E580B7F88030002B00F0E080B7F8D5
:1005480080301B0C1B04002B40F0D98097F98430B5
:10055800002BC0F2D48097F98430032B00F3CF80AE
:1005680097F99830012B21D1D7F88830002B00F06B
:10057800C680B7F88C30002B00F0C180B7F88C30FB
:100588001B0C1B04002B40F0BA80D7F89030002BCE
:1005980000F0B580B7F89430002B00F0B080B7F8C1
:1005A80094301B0C1B04002B40F0A980682007F036
:1005B80099FB03467B667B6E002B00F0A0807B6E68
:1005C800FA681A607B6EBA685A607B6EFA881A817C
:1005D8007B6E3A68DA607B6EB7F878201A827B6E99
:1005E800FA6F5A617B6EB7F880201A837B6E97F892
:1005F80084209A767C6E97F98430184600F024FBA4
:100608000346E36197F99830002B3DD07B6ED7F80D
:1006180088201A627B6EB7F88C209A847B6ED7F894
:1006280090209A627B6EB7F894209A857B6E97F833
:10063800982083F82E207B6E97F89C2083F82F2033
:100648007B6E00221A867B6E00225A867B6EFF2202
:1006580083F834207B6E363300221A605A607B6E32
:10066800403300221A605A609A60DA601A615A614F
:100678009A617B6E002283F85C207B6E00221A66EA
:100688007B6E00225A6637E07B6E00221A627B6E10
:1006980000229A847B6E00229A627B6E00229A85E1
:1006A8007B6E97F8982083F82E207B6EFF2283F8C4
:1006B8002F207B6E00221A867B6E00225A867B6E64
:1006C800FF2283F834207B6E363300221A605A608A
:1006D8007B6E403300221A605A609A60DA601A61B1
:1006E8005A619A617B6EFF2283F85C207B6E002240
:1006F8001A667B6E00225A66786E00F045F97B6EAA
:1007080018466C37BD4690BD80B582B000AF7860A2
:100718007B68D8687B681B8A0022194602F0C2FEF3
:1007280000BF0837BD4680BD80B582B000AF786095
:100738007B68D8687B681B8A0122194602F0B2FEE2
:1007480000BF0837BD4680BD80B582B000AF786075
:100758007B68186A7B689B8C0022194602F0A2FE0F
:1007680000BF0837BD4680BD80B582B000AF786055
:100778007B68186A7B689B8C0122194602F092FEFE
:1007880000BF0837BD4680BD80B582B000AF786035
:100798000B46FB7097F90330002B02D0012B04D0D5
:1007A80007E07868FFF7B0FF03E07868FFF7CCFF51
:1007B80000BF00BF0837BD4680BD80B582B000AF1E
:1007C80078600B46FB7097F90330002B02D0012BA1
:1007D80004D007E07868FFF7A7FF03E07868FFF721
:1007E800C3FF00BF00BF0837BD4680BD80B582B0DB
:1007F80000AF78600B46FB701346BB7097F9033067
:10080800002B09DB97F90330012B05DC97F903303E
:1008180019467868FFF7B8FF7B6858697B681B8BB7
:100828000022194602F03EFE7B681868B91C4FF09A
:10083800FF33012205F0E1FF97F90330002B09DBB4
:1008480097F90330012B05DC97F9033019467868CE
:10085800FFF7B3FF00BF0837BD4680BD80B584B041
:1008680000AFF8607B600B46FB7213463B8197F93B
:100878000B30002B09DB97F90B30012B05DC97F9BE
:100888000B301946F868FFF77FFFFB685869FB686B
:100898001B8B0122194602F005FEFB6818683A898D
:1008A8004FF0FF33796805F0A8FF97F90B30002B5C
:1008B80009DB97F90B30012B05DC97F90B3019464A
:1008C800F868FFF77AFF00BF1037BD4680BD80B5D6
:1008D80082B000AF7860084611461A460346FB709E
:1008E8000B46BB7013463B8097F90330002B09DB9E
:1008F80097F90330012B05DC97F90330194678681E
:10090800FFF742FFBB781A464FF0FF317868FFF7D0
:100918006DFF3A883B694FF0FF317868FFF79EFF1B
:1009280097F90330002B09DB97F90330012B05DC1D
:1009380097F9033019467868FFF73FFF00BF08377B
:10094800BD4680BD80B582B000AF78607B685868CE
:100958007B681B890022194602F0A4FDC82001F01B
:100968002FFF7B6858687B681B890122194602F0B3
:1009780099FD7868FFF7D8FE7868FFF7F5FE00BFA5
:100988000837BD4680BD000090B59FB002AF7860C3
:100998007868FFF7D7FF7868FFF7B6FE01224FF0B7
:1009A800FF317868FFF722FF4FF47A7001F008FFF3
:1009B8009D4A07F1680392E8030018600433197030
:1009C80007F1680300930523CB224FF0FF317868C5
:1009D800FFF77DFF954A07F16403126811461980F5
:1009E8000233120C1A7007F1640300930323CF2219
:1009F8004FF0FF317868FFF76AFF8D4A07F160030F
:100A08001268114619800233120C1A7007F160033C
:100A180000930323E8224FF0FF317868FFF757FF70
:100A2800002387F85C30002387F85D3007F15C030A
:100A380000930223EA224FF0FF317868FFF747FF5F
:100A48007C4B1B68BB6507F1580300930423ED2218
:100A58004FF0FF317868FFF73AFF202387F85430CA
:100A680007F1540300930123F7224FF0FF31786810
:100A7800FFF72DFF232387F8503007F15003009329
:100A88000123C0224FF0FF317868FFF720FF1023C1
:100A980087F84C3007F14C0300930123C1224FF033
:100AA800FF317868FFF713FF634B1B88A7F84830BE
:100AB80007F1480300930223C5224FF0FF317868FD
:100AC800FFF705FF862387F8443007F144030093B6
:100AD8000123C7224FF0FF317868FFF7F8FE48235B
:100AE80087F8403007F140030093012336224FF086
:100AF800FF317868FFF7EBFE552387F83C3007F1A4
:100B08003C03009301233A224FF0FF317868FFF746
:100B1800DEFE002387F83830182387F8393007F1CC
:100B2800380300930223B1224FF0FF317868FFF7B2
:100B3800CEFE424A07F13403126811461980023387
:100B4800120C1A7007F1340300930323B6224FF0F6
:100B5800FF317868FFF7BBFE002387F8303007F1D4
:100B6800300300930123F2224FF0FF317868FFF73A
:100B7800AEFE012387F82C3007F12C0300930123E4
:100B880026224FF0FF317868FFF7A1FE2C4B07F1C2
:100B98001C040FCB07C4238002341B0C237007F1FD
:100BA8001C0300930F23E0224FF0FF317868FFF712
:100BB8008EFE244B07F10C040FCB07C423800234AC
:100BC8001B0C237007F10C0300930F23E1224FF055
:100BD800FF317868FFF77BFE11224FF0FF3178680C
:100BE800FFF704FE782001F0EBFD29224FF0FF31DA
:100BF8007868FFF7FBFD7B6893F91A30184600F018
:100C080053F803463B7207F1080300930123362289
:100C18004FF0FF317868FFF75AFE7868FFF784FDD8
:100C280000BF7437BD4690BD887E0008907E0008DE
:100C3800947E0008987E00089C7E0008A07E00082C
:100C4800A47E0008B47E000880B489B000AF0346D3
:100C5800FB7197F90730032B11D0032B03DC012B11
:100C680005D0022B07D00E4B1B68FB610AE00D4B29
:100C78001B68FB6106E00A4B1B68FB6102E0094B3D
:100C88001B68FB610023BA8B62F30F03FA8B62F3D4
:100C98001F4318462437BD465DF8047B704700BFE4
:100CA800C47E0008C87E000880B483B000AF034645
:100CB800FB7197F90730032B0BD0032B03DC012BB7
:100CC80003D0022B03D0482304E0E82302E0882362
:100CD80000E0282318460C37BD465DF8047B7047B2
:100CE80080B588B002AFF860084611461A46034638
:100CF8007B810B463B811346FB80F868FFF704FDB8
:100D08007B891B0A9BB2DBB23B757B89DBB27B75A7
:100D1800FB881B0A9BB2DBB2BB75FB88DBB2FB7599
:100D280007F11403009304232A224FF0FF31F868D7
:100D3800FFF7CDFD3B891B0A9BB2DBB23B743B89B5
:100D4800DBB27B743B8C1B0A9BB2DBB2BB743B8C63
:100D5800DBB2FB7407F11003009304232B224FF03E
:100D6800FF31F868FFF7B3FD2C224FF0FF31F86828
:100D7800FFF73CFDF868FFF7D7FC00BF1837BD4602
:100D880080BD80B582B000AF78607B68002B0BD047
:100D980000E000BF7B681B689B6C184602F0F8F8FF
:100DA8000346022BF5D000E000BF0837BD4680BDE2
:100DB80080B584B000AFF8607A601A460B467B8134
:100DC80013467B72FB68002B13D07B89002B10D055
:100DD8007B68002B0DD0FB681B687A8979681846F8
:100DE80006F0FAF87B7A002B04D0F868FFF7C9FF01
:100DF80000E000BF1037BD4680BD000090B58DB043
:100E080002AFF860084611461A4603467B810B4636
:100E18003B811346FB80BA1D07F1080107F13C032B
:100E2800009307F13803F86800F0C3F90346002B74
:100E38006FD03B8FBA8F02FB03F37B617B697B62C8
:100E48007B6A3B623B6AB3F5806F02D94FF48063DB
:100E58003B6207F10A0301331B781AB207F10A0350
:100E68001B781B021BB213431BB27B820023FB833C
:100E780007E0FB8B29497A8A21F81320FB8B013381
:100E8800FB83FB8B3A6A9A42F3D8B7F9083099B2D8
:100E9800B7F9063098B2B7F908309AB23B8F1344C5
:100EA8009BB2013B9CB2B7F906309AB2BB8F134490
:100EB8009BB2013B9BB2009323460246F868FFF7BA
:100EC8000FFFF868FFF720FCFB685869FB681B8B6D
:100ED8000122194602F0E6FA14E07B6ABB61BA699E
:100EE8003B6A9A4201D93B6ABB61BB699BB25B0012
:100EF80099B20123094AF868FFF75AFF7A6ABB6971
:100F0800D31A7B627B6A002BE7D1F868FFF70CFCE9
:100F180000E000BF2C37BD4690BD00BF8C0000200C
:100F2800B0B5ADF52C7D02AF07F52A74A4F527748A
:100F380020600C461046194607F52A73A3F29E2333
:100F480022461A8007F52A73A3F5287302461A80E9
:100F580007F52A73A3F2A2230A461A8007F52A7313
:100F6800A3F2A223B3F90030B7F9B82202FB03F3C6
:100F7800C7F89C32D7F89C32C7F89832D7F898321D
:100F8800C7F8943207F52A73A3F29E23198807F548
:100F98002A73A3F528731C8807F52A73A3F29E23E6
:100FA8001A8807F52A73A3F2A2231B8813449BB25D
:100FB800013B9DB207F52A73A3F528731A88B7F881
:100FC800B83213449BB2013B9BB207F52A72A2F5D3
:100FD800277000932B4622460068FFF781FE07F52D
:100FE8002A73A3F527731868FFF78EFB07F52A7392
:100FF800A3F527731B68586907F52A73A3F52773A8
:101008001B681B8B0122194602F04CFA0023C7F813
:10101800A432A4E00023C7F8A03267E0D7F8A422DE
:1010280013469B0013441B011A46D7F8A0321344F9
:101038005B00D7F8BC221344D7F8A0229200198885
:1010480007F52A73A3F5267323F81210D7F8A422FC
:1010580013469B0013441B011A46D7F8A0321344C9
:101068005B00D7F8BC221344D7F8A02292000132C3
:10107800198807F52A73A3F5267323F81210D7F8F1
:10108800A42213469B0013441B011A46D7F8A0322A
:1010980013445B00D7F8BC221344D7F8A02292006F
:1010A8000232198807F52A73A3F5267323F812105C
:1010B800D7F8A42213469B0013441B011A46D7F8FD
:1010C800A03213445B00D7F8BC221344D7F8A022FF
:1010D80092000332198807F52A73A3F5267323F8BB
:1010E8001210D7F8A0320133C7F8A032D7F8A032CF
:1010F8004F2B93DD07F1100207F52A73A3F527702C
:1011080001234FF420710068FFF752FE07F1100227
:1011180007F52A73A3F5277001234FF4207100689F
:10112800FFF746FE07F1100207F52A73A3F52770AB
:1011380001234FF420710068FFF73AFE07F110020F
:1011480007F52A73A3F5277001234FF4207100686F
:10115800FFF72EFED7F8A4320133C7F8A432D7F828
:10116800A4323B2B7FF756AF07F52A73A3F52773F5
:101178001868FFF7D9FA0023C7F8903200BF07F5BF
:101188002A77BD46B0BD80B584B002AF78600B4603
:101198007B807B689B8B7A68D28B798801920093DD
:1011A800002300227868FFF729FE00BF0837BD46F4
:1011B80080BD80B485B000AFF860B9607A603B60EC
:1011C800BB68002B02D07B68002B01D1002389E08B
:1011D800BB68B3F900301A46FB689B8B9A4207DA62
:1011E8007B68B3F900301A46FB68DB8B9A4201DB57
:1011F800002377E03B68002B0CD0BB69002B09D09B
:101208003B681B88002B03D0BB691B88002B01D1CE
:10121800002367E0BB68B3F90030002B0FDA3B68A6
:10122800002B09D03B681A88BB68B3F900309BB221
:10123800D31A9AB23B681A80BB6800221A807B686E
:10124800B3F90030002B0FDABB69002B09D0BB695A
:101258001A887B68B3F900309BB2D31A9AB2BB697B
:101268001A807B6800221A803B68002B39D0BB6942
:10127800002B36D0BB68B3F900301A463B681B8890
:101288001344FA68928B934209DDFB689A8BBB681A
:10129800B3F900309BB2D31A9AB23B681A807B68C4
:1012A800B3F900301A46BB691B881344FA68D28B1D
:1012B800934209DDFB68DA8B7B68B3F900309BB297
:1012C800D31A9AB2BB691A803B681B88002B05D0D9
:1012D800BB691B88002B01D0012300E00023DBB28F
:1012E80000E0012318461437BD465DF8047B7047BB
:1012F80080B500AF174B5B69164A43F4006353612E
:10130800642001F05DFA134B5B69124A23F48053A1
:101318005361642001F054FA0E4B5B690D4A43F4A3
:1013280080535361642001F04BFA0B4B5B690A4A06
:1013380043F480535361642001F042FA064B5B6921
:10134800054A23F48053536141F2883001F038FA9A
:1013580000BF80BD00000240000802402DE9F043B4
:1013680089B002AF03463960FB806B461E464FF4D6
:1013780000633B81FB8859004B1E3B610A460023F2
:10138800904699464FF000024FF000034FEAC90318
:1013980043EA58734FEAC8020A46002314461D461A
:1013A8004FF000024FF00003EB0043EA5473E200F1
:1013B8000B460733DB08DB00ADEB030D02AB003354
:1013C800FB6007F108024FF47A730093022354215B
:1013D800184802F0C5F9FB885B009BB24FF47A729B
:1013E8000092FA685421134802F0B8FA00237B618E
:1013F80016E07B695B00FA68D35C9BB21B0299B26A
:101408007B695B000133FA68D35C9AB27B695B0045
:10141800386803440A4492B21A807B6901337B61BD
:10142800FB887A699A42E4DBB54600BF1C37BD46A3
:10143800BDE8F0838C08002080B586B002AF034673
:10144800FB804FF48063BB813B7B3B727B7B7B7271
:10145800FB881B0A9BB2DBB2BB72FB88DBB2FB7258
:1014680007F108024FF47A730093042354210348C8
:1014780002F076F900BF1037BD4680BD8C08002009
:1014880080B586B002AF0346FB804FF4C063BB81D2
:101498003B7B3B727B7B7B72FB881B0A9BB2DBB27C
:1014A800BB72FB88DBB2FB7207F108024FF47A7358
:1014B800009304235421034802F052F900BF103767
:1014C800BD4680BD8C08002080B586B002AF4FF4C1
:1014D80000733B8107F108024FF47A7300930223EB
:1014E80054210D4802F03CF90346FB603A1D4FF4C5
:1014F8007A73009302235421074802F02FFA034617
:10150800FB607B7903F00403002BE3D000BF00BF2E
:101518001037BD4680BD00BF8C08002080B584B060
:1015280002AF4FF40073BB803A1D4FF47A730093F7
:10153800022354210B4802F013F93A464FF47A7308
:10154800009302235421074802F008FA3B789BB223
:101558001B029AB27B789BB213449BB21846083799
:10156800BD4680BD8C0800202DE9F04389B002AF4C
:1015780078600B467B806B461E467B88013359009A
:101588004B1E3B610A460023904699464FF00002E5
:101598004FF000034FEAC90343EA58734FEAC80201
:1015A8000A46002314461D464FF000024FF0000380
:1015B800EB0043EA5473E2000B460733DB08DB0019
:1015C800ADEB030D02AB0033FB60FB6800221A7021
:1015D800FB6808225A7000237B610AE07B697A68FD
:1015E8001A447B6902331178FA68D1547B69013354
:1015F8007B617B885B007A699A42EFDB7B880133E9
:101608009BB25B009BB24FF47A720092FA68542145
:10161800044802F0A5F8B54600BF1C37BD46BDE832
:10162800F08300BF8C08002080B582B000AFFFF7C0
:1016380075FF0346FB80FFF771FF0346FB80FB88BD
:1016480003F00103002BF6D1FB8818460837BD4686
:1016580080BD80B584B000AF03463960FB80134677
:10166800BB80FFF7E1FFBB8819463868FFF77CFFAE
:10167800BB881846FFF704FFFB881846FFF7DCFE17
:10168800FFF7D2FF0346FB81FB8903F47F43002B5E
:1016980003D04FF4FA6001F093F800BF1037BD464D
:1016A80080BD80B584B000AF03463960FB80134627
:1016B800BB80FFF7B9FFBB881846FFF7E1FEFB8840
:1016C8001846FFF7B9FEFFF7AFFF0346FB81FB891A
:1016D80003F47F43002B04D04FF4FA6001F070F854
:1016E80004E0BB8839681846FFF738FE1037BD4656
:1016F80080BD000080B5ADF5BE4D92B002AF07F5D4
:101708007463A3F63C73186007F1C0013C394FF4C9
:101718007A730422964805F0ACF911E007F51951DF
:1017280038394FF47A73F022914805F0A2F907F19D
:10173800C0013C394FF47A7304228D4805F099F9B9
:1017480007F57463A3F6BC631B7803F00F030F2B34
:10175800E4D007F51953383B191D4FF47A7343F653
:101768002C12834805F085F9002307F5BE4202F1E3
:101778003C021360DCE0002307F5BE4202F13802A8
:101788001360C2E007F5BE4303F13C031B68F42273
:1017980002FB03F107F5BE4303F138031A68134649
:1017A8005B0013440B44043307F53D52A2F638128C
:1017B800D35C1B021BB223F4FF6323F0070319B2A7
:1017C80007F5BE4303F13C031B68F42202FB03F058
:1017D80007F5BE4303F138031A6813465B00134448
:1017E8000344053307F53D52A2F63812D35CDB00FB
:1017F8001BB203F4FC631BB20B431BB298B207F590
:10180800BE4303F13C031B68F42202FB03F107F516
:10181800BE4303F138031A6813465B0013440B44B4
:10182800063307F53D52A2F63812D35CDB08DBB26B
:1018380099B207F5BE4303F13C031A6813469B00AF
:1018480013441B011A4607F5BE4303F138031B680E
:101858001A44431899B207F57463A3F6B86323F8DA
:10186800121007F5BE4303F13C031A6813469B00A8
:1018780013441B011A4607F5BE4303F138031B68DE
:101888001A4407F1C003383B5200134401331B7854
:1018980019B207F5BE4303F13C031A6813469B00CF
:1018A80013441B011A4607F5BE4303F138031B68AE
:1018B8001A4407F1C003383B520013441B781B023B
:1018C8001BB20B4319B207F5BE4303F13C031A6878
:1018D80013469B0013441B011A4607F5BE4303F148
:1018E80038031B681A4489B207F57463A3F6B86312
:1018F80023F8121007F5BE4303F138031B680133C0
:1019080007F5BE4202F13802136007F5BE4303F142
:1019180038031B684F2B7FF735AF07F5BE4303F13C
:101928003C031B68013307F5BE4202F13C02136019
:1019380007F5BE4303F13C031B683B2B7FF71BAF46
:1019480007F57463A3F63C7007F1C003383B0193B5
:10195800F02300934FF4A073002200210068FFF7E2
:10196800DFFA00BF07F5BE474037BD4680BD00BF60
:101978009009002080B582B000AF4FF480737B607F
:101988003B1D0222194640F20110FFF762FE00BF1C
:101998000837BD4680BD80B582B000AF3B1D02222E
:1019A80019464FF48070FFF77CFEBB88184608374D
:1019B800BD4680BD80B582B000AF4FF440737B60F8
:1019C8003B1D0222194640F23130FFF742FE6420E7
:1019D80000F0F6FE3B1D0222194644F62900FFF7E7
:1019E80038FE00BF0837BD4680BD80B584B000AF63
:1019F8000346FB7100233B73FB797B730023BB73A6
:101A08000023FB7307F10C030222194640F205304C
:101A1800FFF71FFE00BF1037BD4680BD80B582B0FE
:101A280000AF4FF480737B603B1D0222194640F2E1
:101A38004910FFF70EFE00BF0837BD4680BD80B5D0
:101A480082B000AF4FF480737B603B1D02221946C1
:101A580044F62D00FFF7FDFD00BF0837BD4680BDE9
:101A680080B582B000AF4FF480737B603B1D0222CB
:101A7800194644F62500FFF7ECFD00BF0837BD46C0
:101A880080BD80B582B000AF00237B603B1D022281
:101A9800194640F20D30FFF7DCFD00BF0837BD46A0
:101AA80080BD80B582B000AF00237B603B1D022261
:101AB800194644F61160FFF7CCFD00BF0837BD4654
:101AC80080BD80B582B000AF00237B603B1D022241
:101AD800194640F20D30FFF7BCFD00BF0837BD4680
:101AE80080BD80B582B000AF00237B603B1D022221
:101AF800194640F21920FFF7ACFD00BF0837BD4674
:101B080080BD000080B590B00AAF00F0E7FD00F09E
:101B18007BF800F005FA00F0DBF900F0AFF900F00F
:101B28000BF900F03FF900F0D9F800F071F9FFF770
:101B3800DFFBFFF7C9FC0023099300230893002368
:101B4800079300230693002305930023049301239E
:101B580003934FF480630293274B01934FF4007370
:101B68000093264B022225492548FEF7B3FC38612D
:101B780010213869FFF707FB0423FB750023FB815D
:101B8800FFF78FFFFFF77DFFFFF7ABFFFFF799FF29
:101B9800FFF755FFFFF764FFFFF7ECFEFFF73EFF87
:101BA800FFF708FF0120FFF720FF4FF4FA6000F06D
:101BB80007FEFFF7F0FE0346FB810023BB60386990
:101BC800FFF798FD322000F0FBFD4FF400510D485F
:101BD80001F050FC0346002BF1D1FB7D1846FFF7BE
:101BE80004FFFB7D072B02D10123FB7502E0FB7D7F
:101BF8000133FB75E3E700BF000402400000024028
:101C0800E00800200008024080B594B000AF07F15A
:101C1800200330220021184606F06CF807F10C0367
:101C280000221A605A609A60DA601A610023BB6069
:101C3800284B1B6C274A43F080531364254B1B6CBD
:101C480003F08053BB60BB6800237B60224B1B689A
:101C5800214A43F4404313601F4B1B6803F440437D
:101C68007B607B6802233B620123FB6210233B639A
:101C78000223BB630023FB6308233B6450237B647C
:101C88000223BB640423FB6407F12003184604F015
:101C980093F80346002B01D000F0FCF90F23FB60FA
:101CA80002233B6100237B614FF48053BB614FF4F7
:101CB8008053FB6107F10C030221184604F0F4FA83
:101CC8000346002B01D000F0E5F900BF5037BD46B0
:101CD80080BD00BF003802400070004080B500AFF2
:101CE800124B134A1A60114B124A5A600F4B0022CA
:101CF8009A600E4B5422DA600C4B4FF480421A6102
:101D08000A4B00225A61094B00229A61074B0022B4
:101D1800DA61064B00221A62044801F0DDFB034633
:101D2800002B01D000F0B6F900BF80BD8C08002060
:101D380000540040801A060080B500AF174B184ABF
:101D48001A60164B4FF482725A60144B00229A6044
:101D5800124B0022DA60114B00221A610F4B00224D
:101D68005A610E4B4FF400729A610C4B0022DA61F3
:101D78000A4B00221A62094B00225A62074B0022C2
:101D88009A62064B0A22DA62044804F0ADFC034664
:101D9800002B01D000F07EF900BF80BDE0080020D4
:101DA8000030014080B500AF174B184A1A60164B37
:101DB8004FF482725A60144B00229A60124B002230
:101DC800DA60114B00221A610F4B00225A610E4B48
:101DD8004FF400729A610C4B0022DA610A4B002220
:101DE8001A62094B00225A62074B00229A62064B7C
:101DF8000A22DA62044804F077FC0346002B01D07B
:101E080000F048F900BF80BD3809002000380040C4
:101E180080B500AF174B184A1A60164B4FF4827200
:101E28005A60144B00229A60124B0022DA60114B60
:101E380000221A610F4B00225A610E4B4FF40072B8
:101E48009A610C4B0022DA610A4B00221A62094B94
:101E580000225A62074B00229A62064B0A22DA6273
:101E6800044804F041FC0346002B01D000F012F9AD
:101E780000BF80BD90090020003C004080B500AF45
:101E8800114B124A1A60104B4FF4FA325A600E4B3B
:101E980000229A600C4B0022DA600B4B00221A6178
:101EA800094B0C225A61084B00229A61064B00220A
:101EB800DA61054805F02AFC0346002B01D000F042
:101EC800E9F800BF80BD00BFA80A00200044004018
:101ED80080B582B000AF00237B60104B1B6B0F4AAC
:101EE80043F4800313630D4B1B6B03F480037B6087
:101EF8007B6800220021382000F061FD382000F0C6
:101F08007AFD002200213A2000F059FD3A2000F025
:101F180072FD00BF0837BD4680BD00BF00380240D3
:101F280080B58AB000AF07F1140300221A605A6026
:101F38009A60DA601A6100233B61524B1B6B514A6D
:101F480043F0040313634F4B1B6B03F004033B6123
:101F58003B690023FB604B4B1B6B4A4A43F08003F1
:101F68001363484B1B6B03F08003FB60FB68002383
:101F7800BB60444B1B6B434A43F001031363414B63
:101F88001B6B03F00103BB60BB6800237B603D4B08
:101F98001B6B3C4A43F0020313633A4B1B6B03F081
:101FA80002037B607B68002241F28101364801F020
:101FB80079FA002241F60331344801F073FA00221D
:101FC80040F25141324801F06DFA4FF400537B6101
:101FD8004FF40413BB610023FB6107F11403194696
:101FE800294801F0C3F841F281037B610123BB61F9
:101FF8000023FB6100233B6207F1140319462248C2
:1020080001F0B4F840F203237B610123BB61002394
:10201800FB6101233B6207F1140319461B4801F0D9
:10202800A5F851237B610123BB610023FB610023D9
:102038003B6207F114031946154801F097F84FF46D
:1020480080637B610123BB610023FB6101233B6249
:1020580007F1140319460E4801F088F84FF4C853E5
:102068007B610123BB610023FB6100233B6207F115
:1020780014031946054801F079F800BF2837BD4612
:1020880080BD00BF00380240000802400000024046
:102098000004024080B400AF72B600BFFEE7000043
:1020A80080B582B000AF00237B60104B5B6C0F4A99
:1020B80043F4804353640D4B5B6C03F480437B60B3
:1020C8007B6800233B60094B1B6C084A43F0805334
:1020D8001364064B1B6C03F080533B603B6807207E
:1020E80000F062FC00BF0837BD4680BD00380240E2
:1020F80080B58AB000AF786007F1140300221A6037
:102108005A609A60DA601A617B681B68214A9342B8
:102118003CD100233B61204B1B6B1F4A43F0020359
:1021280013631D4B1B6B03F002033B613B694FF4C8
:10213800C0737B611223BB610123FB6103233B62F4
:1021480004237B6207F114031946144801F00EF8C2
:102158000023FB60104B1B6C0F4A43F400131364FD
:102168000D4B1B6C03F40013FB60FB68002200217D
:102178001F2000F024FC1F2000F03DFC002200215D
:10218800202000F01CFC202000F035FC00BF283780
:10219800BD4680BD005400400038024000040240A3
:1021A80080B590B000AF786007F12C0300221A6068
:1021B8005A609A60DA601A617B681B68724A9342B7
:1021C80040F091800023BB62704B5B6C6F4A43F414
:1021D800805353646D4B5B6C03F48053BB62BB6AE2
:1021E80000237B62694B1B6B684A43F0010313634E
:1021F800664B1B6B03F001037B627B6AE023FB6287
:1022080002233B6300237B630323BB630523FB6338
:1022180007F12C0319465E4800F0A8FF5D4B5E4AA3
:102228001A605C4B4FF0C0625A605A4B00229A60A9
:10223800584B0022DA60574B4FF480621A61554BB5
:1022480000225A61534B00229A61524B0022DA61F4
:10225800504B00221A624F4B00225A624D4800F040
:10226800E5FB0346002B01D0FFF714FF7B68494AC2
:10227800DA64484A7B689363484B494A1A60474B7B
:102288004FF080625A60454B40229A60434B0022CF
:10229800DA60424B4FF480621A61404B00225A6167
:1022A8003E4B00229A613D4B0022DA613B4B0022F3
:1022B8001A623A4B00225A62384800F0B7FB0346CC
:1022C800002B01D0FFF7E6FE7B68344A9A64334A54
:1022D8007B68936300220021232000F070FB2320F9
:1022E80000F089FBCDE07B681B682E4A93425FD1E2
:1022F80000233B62254B1B6C244A43F48043136440
:10230800224B1B6C03F480433B623B6A0023FB6156
:102318001E4B1B6B1D4A43F0040313631B4B1B6BC3
:1023280003F00403FB61FB690023BB61174B1B6BC4
:10233800164A43F002031363144B1B6B03F00203AA
:10234800BB61BB690C23FB6202233B6300237B63F5
:102358000323BB630523FB6307F12C0319461248CB
:1023680000F004FF4FF40053FB6202233B63002399
:102378007B630323BB630523FB6307F12C03194627
:102388000A4800F0F3FE7CE00030014000380240CB
:1023980000000240E809002010640240480A0020BA
:1023A8004064024000380040000802400004024037
:1023B8007B681B68354A934263D100237B61344BA9
:1023C8001B6C334A43F400431364314B1B6C03F416
:1023D80000437B617B6900233B612D4B1B6B2C4ABF
:1023E80043F0020313632A4B1B6B03F002033B61A8
:1023F8003B690023FB60264B1B6B254A43F0040313
:102408001363234B1B6B03F00403FB60FB684FF45F
:102418008053FB6202233B6300237B630323BB637C
:102428000723FB6307F12C0319461A4800F09EFEA8
:102438004FF40063FB6202233B6300237B630323A7
:10244800BB630623FB6307F12C031946124800F00F
:102458008DFE2023FB6202233B6300237B6303235F
:10246800BB630623FB6307F12C031946094800F0F8
:102478007DFE00220021332000F0A1FA332000F075
:10248800BAFA00BF4037BD4680BD00BF003C0040DF
:1024980000380240000402400008024080B58AB0BB
:1024A80000AF786007F1140300221A605A609A603E
:1024B800DA601A617B681B68194A93422BD10023A2
:1024C8003B61184B1B6C174A43F400331364154BDC
:1024D8001B6C03F400333B613B690023FB60114B29
:1024E8001B6B104A43F0010313630E4B1B6B03F085
:1024F8000103FB60FB680C237B610223BB610023A3
:10250800FB6103233B6207237B6207F1140319462F
:10251800054800F02BFE00BF2837BD4680BD00BF30
:1025280000440040003802400000024080B400AF80
:10253800FEE780B400AFFEE780B400AFFEE780B4EA
:1025480000AFFEE780B400AFFEE780B400AF00BF85
:10255800BD465DF8047B704780B400AF00BFBD4640
:102568005DF8047B704780B400AF00BFBD465DF8DE
:10257800047B704780B500AF00F002F900BF80BD52
:1025880080B500AF024801F00FFC00BF80BD00BF5E
:102598008C08002080B500AF024801F076FD00BF2E
:1025A80080BD00BF8C08002080B500AF024804F051
:1025B800C9FD00BF80BD00BFE008002080B500AFA6
:1025C800024804F0BFFD00BF80BD00BF9009002095
:1025D80080B500AF024800F051FB00BF80BD00BFCE
:1025E800E809002080B500AF024800F047FB00BFB3
:1025F80080BD00BF480A002080B586B000AF786073
:10260800144A154BD31A7B617B693B61134B1B68DA
:10261800002B02D1114B124A1A60104B1A687B68C2
:1026280013443A699A4207D205F032FB03460C225A
:102638001A604FF0FF3309E0084B1B68FB60074B3B
:102648001A687B681344054A1360FB6818461837F4
:10265800BD4680BD0000022000040000EC0A0020F6
:10266800080B002080B400AF064BD3F88830054A29
:1026780043F47003C2F8883000BFBD465DF8047BA0
:10268800704700BF00ED00E0DFF834D00D480E4978
:102698000E4A002302E0D458C4500433C4188C42B4
:1026A800F9D30B4A0B4C002301E013600432A24219
:1026B800FBD3FFF7D7FF05F0F1FAFFF723FA7047CE
:1026C800000002200000002070000020FC7E0008AE
:1026D80070000020040B0020FEE7000080B500AF6A
:1026E8000E4B1B680D4A43F4007313600B4B1B68B9
:1026F8000A4A43F480631360084B1B68074A43F493
:1027080080731360032000F04FF9002000F008F8F0
:10271800FFF7C6FC0023184680BD00BF003C0240FE
:1027280080B582B000AF7860124B1A68124B1B78E4
:1027380019464FF47A73B3FBF1F3B2FBF3F318467F
:1027480000F067F90346002B01D001230EE07B68F7
:102758000F2B0AD8002279684FF0FF3000F02FF9CC
:10276800064A7B681360002300E0012318460837F7
:10277800BD4680BD000000200800002004000020A5
:1027880080B400AF064B1B781A46064B1B681344EF
:10279800044A136000BFBD465DF8047B704700BF64
:1027A80008000020F00A002080B400AF034B1B682B
:1027B8001846BD465DF8047B704700BFF00A00204C
:1027C80080B584B000AF7860FFF7EEFFB8607B6833
:1027D800FB60FB68B3F1FF3F05D00A4B1B781A4634
:1027E800FB681344FB6000BFFFF7DEFF0246BB68CF
:1027F800D31AFA689A42F7D800BF00BF1037BD460F
:1028080080BD00BF0800002080B485B000AF7860AC
:102818007B6803F00703FB600C4BDB68BB60BA689E
:102828004FF6FF031340BB60FB681A02BB681343F3
:1028380043F0BF6343F40033BB60044ABB68D36012
:1028480000BF1437BD465DF8047B704700ED00E01B
:1028580080B400AF044BDB681B0A03F0070318467B
:10286800BD465DF8047B704700ED00E080B483B09E
:1028780000AF0346FB7197F90730002B0BDBFB79A0
:1028880003F01F02074997F907305B09012000FA96
:1028980002F241F8232000BF0C37BD465DF8047BE7
:1028A800704700BF00E100E080B483B000AF03468A
:1028B8003960FB7197F90730002B0ADB3B68DAB205
:1028C8000C4997F907301201D2B20B4483F8002360
:1028D8000AE03B68DAB20849FB7903F00F03043BCE
:1028E8001201D2B20B441A7600BF0C37BD465DF810
:1028F800047B704700E100E000ED00E080B489B09F
:1029080000AFF860B9607A60FB6803F00703FB6109
:10291800FB69C3F10703042B28BF0423BB61FB69D0
:102928000433062B02D9FB69033B00E000237B61DB
:102938004FF0FF32BB6902FA03F3DA43BB681A406F
:102948007B699A404FF0FF317B6901FA03F3D94361
:102958007B680B40134318462437BD465DF8047B5B
:102968007047000080B582B000AF78607B68013B9B
:10297800B3F1807F01D301230FE00A4A7B68013B52
:1029880053600F214FF0FF30FFF78EFF054B0022F9
:102998009A60044B07221A60002318460837BD4680
:1029A80080BD00BF10E000E080B582B000AF786065
:1029B8007868FFF729FF00BF0837BD4680BD80B59E
:1029C80086B000AF0346B9607A60FB7300237B6171
:1029D800FFF73EFF78617A68B9687869FFF78EFF7C
:1029E800024697F90F3011461846FFF75DFF00BF02
:1029F8001837BD4680BD80B582B000AF0346FB7175
:102A080097F907301846FFF731FF00BF0837BD4672
:102A180080BD80B582B000AF78607868FFF7A2FF0C
:102A2800034618460837BD4680BD000080B586B00D
:102A380000AF786000237B61FFF7B6FE38617B68E2
:102A4800002B01D1012399E07B68022283F835200D
:102A58007B68002283F834207B681B681A687B68CF
:102A68001B6822F001021A600FE0FFF79DFE024684
:102A78003B69D31A052B08D97B6820225A657B68E5
:102A8800032283F83520032378E07B681B681B68E2
:102A980003F00103002BE8D17B681B681B687B618E
:102AA8007A69384B13407B617B685A687B689B68FE
:102AB8001A437B68DB681A437B681B691A437B6887
:102AC8005B691A437B689B691A437B68DB691A4315
:102AD8007B681B6A13437A6913437B617B685B6A73
:102AE800042B07D17B68DA6A7B681B6B13437A690E
:102AF80013437B617B681B687A691A607B681B6873
:102B08005B697B617B6923F007037B617B685B6A98
:102B18007A6913437B617B685B6A042B17D17B68F6
:102B28009B6A7A6913437B617B68DB6A002B0ED052
:102B3800786800F09FFA0346002B08D07B68402293
:102B48005A657B68012283F83520012316E07B68EB
:102B58001B687A695A61786800F056FA0346FB6088
:102B68007B68DB6D3F229A40FB689A607B68002295
:102B78005A657B68012283F83520002318461837E8
:102B8800BD4680BD3F8010F080B586B000AFF860CC
:102B9800B9607A603B600023FB75FB689B6D3B6105
:102BA800FB6893F83430012B01D1022340E0FB6825
:102BB800012283F83420FB6893F83530DBB2012B0F
:102BC8002FD1FB68022283F83520FB6800225A6562
:102BD8003B687A68B968F86800F0E8F9FB68DB6D6B
:102BE8003F229A403B699A60FB681B681A68FB6839
:102BF8001B6842F016021A60FB681B6C002B07D09A
:102C0800FB681B681A68FB681B6842F008021A60B8
:102C1800FB681B681A68FB681B6842F001021A60AF
:102C280005E0FB68002283F834200223FB75FB7D56
:102C380018461837BD4680BD80B483B000AF7860B1
:102C48007B6893F83530DBB2022B04D07B68802296
:102C58005A6501230CE07B68052283F835207B68E0
:102C68001B681A687B681B6822F001021A6000233F
:102C780018460C37BD465DF8047B704780B586B0B2
:102C880000AF78600023BB608E4B1B688E4AA2FBA6
:102C980003239B0A7B617B689B6D3B613B691B68D7
:102CA800FB607B68DB6D08229A40FB681340002BB1
:102CB8001AD07B681B681B6803F00403002B13D031
:102CC8007B681B681A687B681B6822F004021A601C
:102CD8007B68DB6D08229A403B699A607B685B6D74
:102CE80043F001027B685A657B68DB6D01229A40DC
:102CF800FB681340002B12D07B681B685B6903F0EC
:102D08008003002B0BD07B68DB6D01229A403B6966
:102D18009A607B685B6D43F002027B685A657B684A
:102D2800DB6D04229A40FB681340002B12D07B68AD
:102D38001B681B6803F00203002B0BD07B68DB6D5C
:102D480004229A403B699A607B685B6D43F00402F9
:102D58007B685A657B68DB6D10229A40FB681340DC
:102D6800002B43D07B681B681B6803F00803002B0B
:102D78003CD07B68DB6D10229A403B699A607B6887
:102D88001B681B6803F48023002B18D07B681B6822
:102D98001B6803F40023002B08D17B681B6C002BF5
:102DA80024D07B681B6C786898471FE07B689B6C15
:102DB800002B1BD07B689B6C7868984716E07B6873
:102DC8001B681B6803F48073002B07D17B681B68A2
:102DD8001A687B681B6822F008021A607B681B6C03
:102DE800002B03D07B681B6C786898477B68DB6D89
:102DF80020229A40FB681340002B00F08F807B68EC
:102E08001B681B6803F01003002B00F087807B68A9
:102E1800DB6D20229A403B699A607B6893F83530D5
:102E2800DBB2052B36D17B681B681A687B681B6888
:102E380022F016021A607B681B685A697B681B6857
:102E480022F080025A617B681B6C002B03D17B68DF
:102E58009B6C002B07D07B681B681A687B681B6813
:102E680022F008021A607B68DB6D3F229A403B69BA
:102E78009A607B68012283F835207B68002283F8FA
:102E880034207B681B6D002B7ED07B681B6D7868B7
:102E9800984779E07B681B681B6803F48023002B44
:102EA8001DD07B681B681B6803F40023002B0DD121
:102EB8007B685B6C002B31D07B685B6C78689847CB
:102EC8002CE000BF00000020B5814E1B7B68DB6B47
:102ED800002B23D07B68DB6B786898471EE07B6803
:102EE8001B681B6803F48073002B0FD17B681B6879
:102EF8001A687B681B6822F010021A607B6801223E
:102F080083F835207B68002283F834207B68DB6BEC
:102F1800002B03D07B68DB6B786898477B685B6D18
:102F2800002B32D07B685B6D03F00103002B22D0AD
:102F38007B68052283F835207B681B681A687B68E4
:102F48001B6822F001021A60BB680133BB607A6912
:102F58009A4207D37B681B681B6803F00103002BA8
:102F6800F2D100E000BF7B68012283F835207B683E
:102F7800002283F834207B68DB6C002B05D07B684B
:102F8800DB6C7868984700E000BF1837BD4680BD05
:102F980080B483B000AF78607B6893F83530DBB2DB
:102FA80018460C37BD465DF8047B704780B485B081
:102FB80000AFF860B9607A603B60FB681B681A680C
:102FC800FB681B6822F480221A60FB681B683A6859
:102FD8005A60FB689B68402B08D1FB681B687A68BD
:102FE8009A60FB681B68BA68DA6007E0FB681B68D0
:102FF800BA689A60FB681B687A68DA6000BF1437A1
:10300800BD465DF8047B704780B485B000AF78603A
:103018007B681B68DBB2103B144AA2FB03231B0925
:10302800FB60134AFB6813441B781A467B68DA6511
:10303800FB68032B09D97B681B6823F47F7323F093
:1030480003031A1D7B689A6507E07B681B6823F4F5
:103058007F7323F003037A6893657B689B6D18463A
:103068001437BD465DF8047B704700BFABAAAAAA17
:10307800E47E000880B485B000AF78600023FB735D
:103088007B689B6ABB607B689B69002B1FD1BB6810
:10309800032B56D801A252F823F000BFB530000820
:1030A800C7300008B53000084B3100087B68DB6A80
:1030B80003F08073002B46D00123FB7343E07B6849
:1030C800DB6AB3F1C07F40D10123FB733DE07B682D
:1030D8009B69B3F5005F21D1BB68032B37D801A2E8
:1030E80052F823F0FD30000803310008FD300008D5
:1030F800153100080123FB7330E07B68DB6A03F0BD
:103108008073002B25D00123FB7322E07B68DB6AE8
:10311800B3F1C07F1FD10123FB731CE0BB68022BF6
:1031280003D9BB68032B03D018E00123FB7315E018
:103138007B68DB6A03F08073002B0ED00123FB73DE
:103148000BE000BF0AE000BF08E000BF06E000BFD8
:1031580004E000BF02E000BF00E000BFFB7B1846B0
:103168001437BD465DF8047B704700BF80B489B052
:1031780000AF7860396000237B6100233B61002346
:10318800BB610023FB6159E10122FB6902FA03F3E9
:103198007B613B681B687A6913403B613A697B69CC
:1031A8009A4240F048813B685B6803F00303012BB7
:1031B80005D03B685B6803F00303022B30D17B68C2
:1031C8009B68BB61FB695B00032202FA03F3DB43E4
:1031D800BA691340BB613B68DA68FB695B0002FAB5
:1031E80003F3BA691343BB617B68BA699A607B6869
:1031F8005B68BB610122FB6902FA03F3DB43BA692E
:103208001340BB613B685B681B0903F00102FB6963
:1032180002FA03F3BA691343BB617B68BA695A605F
:103228003B685B6803F00303032B17D07B68DB68FC
:10323800BB61FB695B00032202FA03F3DB43BA6953
:103248001340BB613B689A68FB695B0002FA03F3B1
:10325800BA691343BB617B68BA69DA603B685B682B
:1032680003F00303022B23D1FB69DA087B680832D9
:1032780053F82230BB61FB6903F007039B000F2260
:1032880002FA03F3DB43BA691340BB613B681A696E
:10329800FB6903F007039B0002FA03F3BA691343BF
:1032A800BB61FB69DA087B680832B96943F8221008
:1032B8007B681B68BB61FB695B00032202FA03F3AE
:1032C800DB43BA691340BB613B685B6803F00302E8
:1032D800FB695B0002FA03F3BA691343BB617B68BD
:1032E800BA691A603B685B6803F44033002B00F04E
:1032F800A2800023FB60574B5B6C564A43F4804323
:103308005364544B5B6C03F48043FB60FB68524A84
:10331800FB699B08023352F82330BB61FB6903F059
:1033280003039B000F2202FA03F3DB43BA6913403D
:10333800BB617B68494A934219D07B68484A9342EB
:1033480013D07B68474A93420DD07B68464A934224
:1033580007D07B68454A934201D1042308E007233C
:1033680006E0032304E0022302E0012300E0002337
:10337800FA6902F0030292009340BA691343BB61F1
:103388003549FB699B080233BA6941F82320384B59
:103398009B68BB613B69DB43BA691340BB613B680F
:1033A8005B6803F48013002B03D0BA693B691343AD
:1033B800BB612F4ABB6993602D4BDB68BB613B69DE
:1033C800DB43BA691340BB613B685B6803F40013D5
:1033D800002B03D0BA693B691343BB61244ABB691C
:1033E800D360234B5B68BB613B69DB43BA6913401D
:1033F800BB613B685B6803F40033002B03D0BA69F8
:103408003B691343BB611A4ABB695360184B1B687D
:10341800BB613B69DB43BA691340BB613B685B68CE
:1034280003F48033002B03D0BA693B691343BB61B3
:103438000F4ABB691360FB690133FB61FB690F2B02
:103448007FF6A2AE00BF00BF2437BD465DF8047BFF
:10345800704700BF003802400038014000000240B9
:103468000004024000080240000C02400010024024
:10347800003C014080B485B000AF78600B467B808B
:103488007B681A697B881340002B02D00123FB73E9
:1034980001E00023FB73FB7B18461437BD465DF83B
:1034A800047B704780B483B000AF78600B467B80A4
:1034B80013467B707B78002B03D07A887B689A61EF
:1034C80003E07B881A047B689A6100BF0C37BD460D
:1034D8005DF8047B7047000080B584B000AF786069
:1034E8007B68002B01D101232BE17B6893F83D30E9
:1034F800DBB2002B06D17B68002283F83C20786879
:10350800FEF7F6FD7B68242283F83D207B681B6864
:103518001A687B681B6822F001021A607B681B68C6
:103528001A687B681B6842F400421A607B681B6853
:103538001A687B681B6822F400421A6003F0ACF832
:10354800F8607B685B68814A934207D8FB68804AC9
:10355800934294BF01230023DBB206E0FB687D4A57
:10356800934294BF01230023DBB2002B01D0012337
:10357800E7E0FB68784AA2FB03239B0CBB607B68EF
:103588001B685B6823F03F017B681B68BA680A43C5
:103598005A607B681B681B6A23F03F017B685B6885
:1035A8006A4A934202D8BB68013309E0BB684FF40A
:1035B800967202FB03F3694AA2FB03239B090133BA
:1035C8007A6812680B4313627B681B68DB6923F413
:1035D8004F4222F0FF027B685B685C498B4219D836
:1035E800FB68591E7B685B685B00B1FBF3F3591CF1
:1035F80040F6FC730B40002B0AD0FB68591E7B6811
:103608005B685B00B1FBF3F30133C3F30B0351E0D9
:1036180004234FE07B689B68002B11D1FB68581E80
:103628007B6859680B465B000B44B0FBF3F301332E
:10363800C3F30B03002B0CBF01230023DBB212E002
:10364800FB68581E7B6859680B469B000B44990021
:103658000B44B0FBF3F30133C3F30B03002B0CBF94
:1036680001230023DBB2002B01D0012322E07B6879
:103678009B68002B0ED1FB68581E7B6859680B4667
:103688005B000B44B0FBF3F30133C3F30B0343F4C8
:1036980000430FE0FB68581E7B6859680B469B0087
:1036A8000B4499000B44B0FBF3F30133C3F30B0352
:1036B80043F44043796809681343CB617B681B680E
:1036C8001B6823F0C0017B68DA697B681B6A1A43B0
:1036D8007B681B680A431A607B681B689B6823F435
:1036E800034323F0FF037A6811697A68D2681143AB
:1036F8007A6812680B4393607B681B68DB6823F069
:10370800FF017B685A697B689B691A437B681B6861
:103718000A43DA607B681B681A687B681B6842F09A
:1037280001021A607B6800221A647B68202283F8F1
:103738003D207B6800221A637B68002283F83E20C4
:10374800002318461037BD4680BD00BFA086010083
:103758007F841E00FF083D0083DE1B43D34D6210AB
:1037680080B588B002AFF8607A601A460B467B8154
:1037780013463B81FFF718F87861FB6893F83D30F2
:10378800DBB2202B40F0E0807B69009319230122F3
:103798007049F86802F0E6F80346002B01D00223CE
:1037A800D3E0FB6893F83C30012B01D10223CCE035
:1037B800FB68012283F83C20FB681B681B6803F048
:1037C8000103012B07D0FB681B681A68FB681B689C
:1037D80042F001021A60FB681B681A68FB681B68E4
:1037E80022F400621A60FB68212283F83D20FB68FE
:1037F800102283F83E20FB6800221A64FB687A686E
:103808005A62FB683A895A85FB685B8D9AB2FB68F5
:103818001A85FB68504ADA6279897B693A6AF868DE
:1038280001F0A8FE0346002B01D001238DE0002300
:103838003B61FB681B685B693B61FB681B689B69B4
:103848003B613B6966E07A69396AF86802F060F9B9
:103858000346002B0DD0FB681B6C042B07D1FB68BB
:103868001B681A68FB681B6842F400721A6001231F
:103878006BE0FB685B6A1A78FB681B681A61FB6877
:103888005B6A5A1CFB685A62FB685B8D9BB2013B02
:103898009AB2FB685A85FB681B8D013B9AB2FB689C
:1038A8001A85FB681B685B6903F00403042B1BD1B2
:1038B800FB681B8D002B17D0FB685B6A1A78FB68C6
:1038C8001B681A61FB685B6A5A1CFB685A62FB68D2
:1038D8005B8D9BB2013B9AB2FB685A85FB681B8DD6
:1038E800013B9AB2FB681A857A69396AF86802F06E
:1038F80050F90346002B0DD0FB681B6C042B07D135
:10390800FB681B681A68FB681B6842F400721A603F
:1039180001231AE0FB681B8D002B94D1FB681B6800
:103928001A68FB681B6842F400721A60FB68202260
:1039380083F83D20FB68002283F83E20FB680022C4
:1039480083F83C20002300E0022318461837BD46C0
:1039580080BD00BF020010000000FFFF80B58CB0E2
:1039680002AFF8607A601A460B467B8113463B81AA
:10397800FEF71AFF7862FB6893F83D30DBB2202B24
:1039880040F00B827B6A0093192301227C49F86876
:1039980001F0E8FF0346002B01D00223FEE1FB689B
:1039A80093F83C30012B01D10223F7E1FB68012297
:1039B80083F83C20FB681B681B6803F00103012B9C
:1039C80007D0FB681B681A68FB681B6842F0010295
:1039D8001A60FB681B681A68FB681B6822F400629F
:1039E8001A60FB68222283F83D20FB68102283F8C6
:1039F8003E20FB6800221A64FB687A685A62FB68FA
:103A08003A895A85FB685B8D9AB2FB681A85FB6810
:103A18005C4ADA6279897B6A3A6BF86801F02CFEB5
:103A28000346002B01D00123B8E1FB681B8D002B56
:103A380013D100233B62FB681B685B693B62FB6830
:103A48001B689B693B623B6AFB681B681A68FB68DA
:103A58001B6842F400721A608CE1FB681B8D012B15
:103A68001BD1FB681B681A68FB681B6822F480621C
:103A78001A600023FB61FB681B685B69FB61FB68DC
:103A88001B689B69FB61FB69FB681B681A68FB681C
:103A98001B6842F400721A606CE1FB681B8D022BF4
:103AA8001BD1FB681B681A68FB681B6822F48062DC
:103AB8001A60FB681B681A68FB681B6842F400629E
:103AC8001A600023BB61FB681B685B69BB61FB680C
:103AD8001B689B69BB61BB694CE1FB681B681A6882
:103AE800FB681B6842F480621A6000237B61FB68F4
:103AF8001B685B697B61FB681B689B697B617B69F1
:103B080038E1FB681B8D032B00F2F180FB681B8DED
:103B1800012B23D17A6A396BF86802F0ADF80346B5
:103B2800002B01D0012339E1FB681B681A69FB6887
:103B38005B6AD2B21A70FB685B6A5A1CFB685A62ED
:103B4800FB681B8D013B9AB2FB681A85FB685B8D8D
:103B58009BB2013B9AB2FB685A850BE1FB681B8D4F
:103B6800022B4ED17B6A00933B6B00220649F86812
:103B780001F0F8FE0346002B08D001230EE100BF38
:103B8800020010000000FFFF04000100FB681B6832
:103B98001A68FB681B6842F400721A60FB681B68AD
:103BA8001A69FB685B6AD2B21A70FB685B6A5A1CB6
:103BB800FB685A62FB681B8D013B9AB2FB681A8549
:103BC800FB685B8D9BB2013B9AB2FB685A85FB6828
:103BD8001B681A69FB685B6AD2B21A70FB685B6A79
:103BE8005A1CFB685A62FB681B8D013B9AB2FB6842
:103BF8001A85FB685B8D9BB2013B9AB2FB685A85BC
:103C0800B8E07B6A00933B6B00226649F86801F0D4
:103C1800A9FE0346002B01D00123BFE0FB681B6807
:103C28001A68FB681B6822F480621A60FB681B68CC
:103C38001A69FB685B6AD2B21A70FB685B6A5A1C25
:103C4800FB685A62FB681B8D013B9AB2FB681A85B8
:103C5800FB685B8D9BB2013B9AB2FB685A857B6A15
:103C680000933B6B00224F49F86801F07BFE034646
:103C7800002B01D0012391E0FB681B681A68FB68E0
:103C88001B6842F400721A60FB681B681A69FB68BB
:103C98005B6AD2B21A70FB685B6A5A1CFB685A628C
:103CA800FB681B8D013B9AB2FB681A85FB685B8D2C
:103CB8009BB2013B9AB2FB685A85FB681B681A697C
:103CC800FB685B6AD2B21A70FB685B6A5A1CFB68B5
:103CD8005A62FB681B8D013B9AB2FB681A85FB6828
:103CE8005B8D9BB2013B9AB2FB685A8542E07A6AC7
:103CF800396BF86801F0C0FF0346002B01D001239F
:103D08004CE0FB681B681A69FB685B6AD2B21A70E0
:103D1800FB685B6A5A1CFB685A62FB681B8D013B97
:103D28009AB2FB681A85FB685B8D9BB2013B9AB21D
:103D3800FB685A85FB681B685B6903F00403042B66
:103D480018D1FB681B681A69FB685B6AD2B21A70E3
:103D5800FB685B6A5A1CFB685A62FB681B8D013B57
:103D68009AB2FB681A85FB685B8D9BB2013B9AB2DD
:103D7800FB685A85FB681B8D002B7FF4C2AEFB687D
:103D8800202283F83D20FB68002283F83E20FB6850
:103D9800002283F83C20002300E00223184628373D
:103DA800BD4680BD0400010080B588B000AF7860D2
:103DB8000023BB617B681B685B687B617B68DB6A8F
:103DC8003B617B6893F83E30FB737B6893F83D302A
:103DD800BB73FB7B102B03D0FB7B402B40F0C180D7
:103DE8007B681B689B69BB617B681B685B69FB61BF
:103DF800FB6903F00103002B0DD13B69B3F52A0FD2
:103E080003D03B69B3F12A4F01D1012300E000231D
:103E1800012B00F03281FB6903F00103002B0CD069
:103E28007B695B0A03F00103002B06D0786801F078
:103E3800A8FF786800F083FD92E0FB69DB0803F0D7
:103E48000103002B09D07B695B0A03F00103002BF7
:103E580003D0786800F0F9FD82E0FB695B0803F0A5
:103E68000103002B09D07B695B0A03F00103002BD7
:103E780003D0786800F013FE72E0BB699B0803F07A
:103E88000103002B3BD07B681B685B6803F400636D
:103E9800B3F5006F00F0F380FB69DB0903F0010361
:103EA800002B0FD07B699B0A03F00103002B09D07C
:103EB800FB699B0803F00103002B03D1786800F02D
:103EC800F3F94DE0FB699B0803F00103002B00F0B8
:103ED800D6807B695B0A03F00103002B00F0CF80DA
:103EE800BB7B212B03D1786800F07AFAC7E0FB7B13
:103EF800402B40F0C480786800F0E8FABFE07B68A7
:103F08001B685B6803F40063B3F5006F00F0B780CB
:103F1800FB699B0903F00103002B0FD07B699B0A07
:103F280003F00103002B09D0FB699B0803F0010390
:103F3800002B03D1786800F05DFB11E0FB699B085A
:103F480003F00103002B00F09A807B695B0A03F001
:103F58000103002B00F09380786800F006FC8EE0E7
:103F68008DE07B681B6C002B04D07B681B685B6949
:103F7800FB6107E07B681B689B69BB617B681B680A
:103F88005B69FB61FB695B0803F00103002B12D03E
:103F98007B695B0A03F00103002B0CD07B681B6C68
:103FA800002B03D07B681B689B69BB61B969786883
:103FB80000F0C4FF66E0FB691B0903F00103002B56
:103FC80009D07B695B0A03F00103002B03D07868F2
:103FD80000F0FEFF56E0BB7B212B02D0BB7B292BD8
:103FE80025D1FB69DB0903F00103002B0FD07B69A6
:103FF8009B0A03F00103002B09D0FB699B0803F01F
:104008000103002B03D1786800F0DAFE39E0FB6980
:104018009B0803F00103002B33D07B695B0A03F094
:104028000103002B2DD0786800F007FF29E0FB6919
:104038009B0903F00103002B0FD07B699B0A03F057
:104048000103002B09D0FB699B0803F00103002B37
:1040580003D1786800F012FF14E0FB699B0803F0B5
:104068000103002B0ED07B695B0A03F00103002BD0
:1040780008D0786800F040FF04E000BF02E000BF0D
:1040880000E000BF2037BD4680BD80B58AB000AFD4
:1040980078607B681B685B693B627B681B685B6850
:1040A800FB6100237B627B6893F83E30FB763B6ABA
:1040B8001B0A03F00103002B0ED0FB691B0A03F057
:1040C8000103002B08D07B6A43F001037B627B6805
:1040D8001B686FF480725A613B6A5B0A03F0010344
:1040E800002B0ED0FB691B0A03F00103002B08D03C
:1040F8007B6A43F002037B627B681B686FF4007283
:104108005A613B6A9B0A03F00103002B3FD0FB690D
:104118001B0A03F00103002B39D0FB7EBB767B68BA
:104128005B8D9BB27B617B6893F83D30FB747B6849
:104138001B6BFB60BB7E202B12D17B69002B0FD140
:10414800FB7C212B08D0FB7C292B05D0FB7C282B62
:1041580006D1FB68212B03D1786801F069F816E0D5
:104168007B681B686FF480625A617B6A43F00403C2
:104178007B62FB7E102B02D0FB7E402B07D17B6835
:104188001B681A687B681B6842F400721A603B6AF5
:10419800DB0A03F00103002B0ED0FB691B0A03F0B6
:1041A8000103002B08D07B6A43F008037B627B681D
:1041B8001B686FF400625A617B6A002B08D07B6829
:1041C8001A6C7B6A1A437B681A64786801F0A0F855
:1041D80000BF2837BD4680BD80B483B000AF78608B
:1041E80000BF0C37BD465DF8047B704780B483B0D0
:1041F80000AF786000BF0C37BD465DF8047B7047A0
:1042080080B483B000AF786000BF0C37BD465DF85E
:10421800047B704780B483B000AF786000BF0C3770
:10422800BD465DF8047B704780B483B000AF78600A
:104238000B46FB7013463B8000BF0C37BD465DF84C
:10424800047B704780B483B000AF786000BF0C3740
:10425800BD465DF8047B704780B483B000AF7860DA
:1042680000BF0C37BD465DF8047B704780B483B04F
:1042780000AF786000BF0C37BD465DF8047B70471F
:1042880080B483B000AF786000BF0C37BD465DF8DE
:10429800047B704780B483B000AF786000BF0C37F0
:1042A800BD465DF8047B704780B584B000AF786088
:1042B8007B6893F83D30FB737B6893F83E30BB73A3
:1042C8007B68DB6ABB607B681B8D002B50D1FB7B56
:1042D800212B4DD1BB68082B1DD0BB68202B1AD0D1
:1042E800BB6813F5803F16D07B681B685A687B68EB
:1042F8001B6822F4E0625A607B6811221A637B68AB
:10430800002283F83E207B68202283F83D207868CD
:10431800FFF762FF60E07B681B685A687B681B6870
:1043280022F4E0625A607B681B681A687B681B6825
:1043380042F400721A607B6800221A637B682022AC
:1043480083F83D207B6893F83E30DBB2402B07D1E1
:104358007B68002283F83E207868FFF77DFF3BE00A
:104368007B68002283F83E207868FFF735FF33E04A
:10437800FB7B212B05D0BB7B402B2DD1FB7B222B3C
:104388002AD17B685B8D9BB2002B08D17B681B68A8
:104398005A687B681B6822F480625A601CE07B685C
:1043A80093F83E30DBB2402B03D1786800F08EF8EA
:1043B80012E07B685B6A1A787B681B681A617B6805
:1043C8005B6A5A1C7B685A627B685B8D9BB2013BB7
:1043D8009AB27B685A85FFE700BF1037BD4680BD9B
:1043E80080B584B000AF78607B68DB6AFB607B686F
:1043F80093F83D30DBB2212B64D17B685B8D9BB297
:10440800002B12D07B685B6A1A787B681B681A617C
:104418007B685B6A5A1C7B685A627B685B8D9BB2BF
:10442800013B9AB27B685A854CE0FB68082B1DD08B
:10443800FB68202B1AD0FB6813F5803F16D07B68E9
:104448001B685A687B681B6822F4E0625A607B68C4
:1044580011221A637B68002283F83E207B682022A1
:1044680083F83D207868FFF7B7FE2BE07B681B6870
:104478005A687B681B6822F4E0625A607B681B6894
:104488001A687B681B6842F400721A607B68002215
:104498001A637B68202283F83D207B6893F83E30BE
:1044A800DBB2402B07D17B68002283F83E20786876
:1044B800FFF7D2FE06E07B68002283F83E2078688A
:1044C800FFF78AFE00BF1037BD4680BD80B584B0B7
:1044D80000AF78607B6893F83D30FB737B681B6D99
:1044E800002B1DD17B68DB6C012B0BD17B689B6C8F
:1044F800DAB27B681B681A617B681B6D9A1C7B6843
:104508001A6573E07B689B6C9BB21B12DAB27B68FE
:104518001B681A617B681B6D5A1C7B681A6565E00D
:104528007B681B6D012B0BD17B689B6CDAB27B68B7
:104538001B681A617B681B6D5A1C7B681A6555E0FD
:104548007B681B6D022B51D1FB7B222B0DD17B6825
:104558001B681A687B681B6842F480721A607B6863
:104568001B6D5A1C7B681A6540E07B685B8D9BB2AB
:10457800002B15D0FB7B212B12D17B685B6A1A7844
:104588007B681B681A617B685B6A5A1C7B685A6285
:104598007B685B8D9BB2013B9AB27B685A8525E0AC
:1045A8007B685B8D9BB2002B20D1FB7B212B1DD11F
:1045B8007B681B685A687B681B6822F4E0625A6053
:1045C8007B681B681A687B681B6842F400721A6073
:1045D8007B6800221A637B68202283F83D207B6871
:1045E800002283F83E207868FFF736FE00BF1037B8
:1045F800BD4680BD80B584B000AF78607B6893F815
:104608003D30DBB2222B40F0AC807B685B8D9BB2E7
:10461800FB60FB68032B21D97B681B681A697B68E0
:104628005B6AD2B21A707B685B6A5A1C7B685A62F2
:104638007B685B8D9BB2013B9AB27B685A857B682D
:104648005B8D9BB2032B40F08C807B681B685A689B
:104658007B681B6822F480625A6082E07B68DB6AB0
:10466800022B75D0FB68012B02D0FB68002B6FD1A1
:10467800786801F0CFFA0346002B42D17B681B68AB
:104688001A687B681B6822F480621A607B681B6862
:104698005A687B681B6822F4E0625A607B681B6872
:1046A8001A697B685B6AD2B21A707B685B6A5A1CAB
:1046B8007B685A627B685B8D9BB2013B9AB27B68D0
:1046C8005A857B68202283F83D207B6893F83E302A
:1046D800DBB2402B0AD17B68002283F83E207B683E
:1046E80000221A637868FFF7C1FD3AE07B68002270
:1046F80083F83E207B6812221A637868FFF776FDFC
:104708002FE07B681B685A687B681B6822F4E062AC
:104718005A607B681B681A697B685B6AD2B21A7038
:104728007B685B6A5A1C7B685A627B685B8D9BB2AC
:10473800013B9AB27B685A857B68202283F83D202A
:104748007B68002283F83E207868FFF799FD08E02F
:104758007B681B685A687B681B6822F480625A6011
:10476800FFE700BF1037BD4680BD80B584B000AFFD
:1047780078607B68DB6AFB607B685B8D9BB2042B8F
:104788001BD17B681B685A687B681B6822F48062AF
:104798005A607B681B681A697B685B6AD2B21A70B8
:1047A8007B685B6A5A1C7B685A627B685B8D9BB22C
:1047B800013B9AB27B685A85BDE07B685B8D9BB2F2
:1047C800032B29D17B681B685A687B681B6822F415
:1047D80080625A60FB68042B0AD0FB68022B07D062
:1047E8007B681B681A687B681B6822F480621A6001
:1047F8007B681B681A697B685B6AD2B21A707B682F
:104808005B6A5A1C7B685A627B685B8D9BB2013B72
:104818009AB27B685A858EE07B685B8D9BB2022BCF
:1048280076D1FB68012B02D0FB68102B08D17B687E
:104838001B681A687B681B6822F480621A6019E09A
:10484800FB68042B02D0FB68022B08D17B681B682D
:104858001A687B681B6842F480621A600AE0FB6889
:10486800102B07D07B681B681A687B681B6842F4AA
:1048780000721A607B681B681A697B685B6AD2B22F
:104888001A707B685B6A5A1C7B685A627B685B8D0E
:104898009BB2013B9AB27B685A857B681B681A6990
:1048A8007B685B6AD2B21A707B685B6A5A1C7B6849
:1048B8005A627B685B8D9BB2013B9AB27B685A85D2
:1048C8007B681B685A687B681B6822F440725A60D0
:1048D8007B68202283F83D207B6893F83E30DBB26A
:1048E800402B0AD17B68002283F83E207B68002297
:1048F8001A637868FFF7BAFC1DE07B68002283F82A
:104908003E207B6812221A637868FFF76FFC12E07A
:104918007B681B681A697B685B6AD2B21A707B680D
:104928005B6A5A1C7B685A627B685B8D9BB2013B51
:104938009AB27B685A8500BF1037BD4680BD80B4E7
:1049480083B000AF78607B6893F83E30DBB2402BD1
:1049580017D17B681B6D002B09D17B685B6CDBB2C0
:104968001A467B681B6802F0FE021A6167E07B68E2
:104978005B6CDBB243F00103DAB27B681B681A6137
:104988005DE07B681B69B3F5804F33D17B6893F892
:104998003D30DBB2212B09D17B685B6CDBB21A4658
:1049A8007B681B6802F0FE021A6108E07B685B6C9A
:1049B800DBB243F00103DAB27B681B681A617B68DB
:1049C8005B6B002B04D07B685B6BDB6B002B08D127
:1049D8007B689B6B002B32D07B689B6BDB6B002B5F
:1049E8002DD07B681B685A687B681B6842F400629C
:1049F8005A6024E07B681B6D002B0ED17B685B6CD2
:104A08009BB2DB11DBB203F00603DBB263F00F03EA
:104A1800DAB27B681B681A6111E07B681B6D012B99
:104A28000DD17B685B6C9BB2DB11DBB203F0060334
:104A3800DBB263F00E03DAB27B681B681A6100BF51
:104A48000C37BD465DF8047B704780B483B000AF77
:104A580078607B685B6CDAB27B681B681A617B687C
:104A68005B6B002B04D07B685B6BDB6B002B08D186
:104A78007B689B6B002B0CD07B689B6BDB6B002BE4
:104A880007D07B681B685A687B681B6842F4006221
:104A98005A6000BF0C37BD465DF8047B704780B490
:104AA80091B000AF78607B6893F83E3087F83F306C
:104AB8007B68DB6ABB637B681B6B7B637B6893F8F3
:104AC8003D30DBB2222B40F069817B681B6D002BE7
:104AD8000FD197F83F30402B0BD100233B637B6805
:104AE8001B685B693B637B681B689B693B633B6B2B
:104AF80060E17B681B6D002B1DD17B681B69B3F5DA
:104B0800404F18D10023FB627B681B685B69FB621E
:104B18007B681B689B69FB62FB6A7B681B681A6879
:104B28007B681B6842F480721A607B681B6D5A1C94
:104B38007B681A653EE17B685B8D9BB2002B13D1C5
:104B48000023BB627B681B685B69BB627B681B6870
:104B58009B69BB62BB6A7B681B681A687B681B68B9
:104B680042F400721A6015E17B685B8D9BB2012BE1
:104B780040F08A80BB6B13F5803F37D17B681B6898
:104B88001A687B681B6822F480621A607B681B685D
:104B98005B6803F40063B3F5006F13D17B681B688F
:104BA8001A687B681B6822F480621A6000237B62A3
:104BB8007B681B685B697B627B681B689B697B629F
:104BC8007B6AE7E000233B627B681B685B693B62AA
:104BD8007B681B689B693B623B6A7B681B681A6839
:104BE8007B681B6842F400721A60D3E0BB6B082B29
:104BF8002ED0BB6B202B2BD07B6B122B02D1BB6B27
:104C0800012B25D1BB6B042B0ED0BB6B022B0BD019
:104C1800BB6B102B08D07B681B681A687B681B6805
:104C280022F480621A6007E07B681B681A687B6858
:104C38001B6842F480621A600023FB617B681B6872
:104C48005B69FB617B681B689B69FB61FB69A1E091
:104C58007B681B681A687B681B6822F480621A608C
:104C68000023BB617B681B685B69BB617B681B6851
:104C78009B69BB61BB697B681B681A687B681B689A
:104C880042F400721A6085E07B685B8D9BB2022B50
:104C98004DD1BB6B042B16D0BB6B022B13D0BB6B57
:104CA800102B10D07B681B681A687B681B6822F47D
:104CB80080621A607B681B681A687B681B6842F40C
:104CC80000621A6007E07B681B681A687B681B68CB
:104CD80042F480621A607B681B685B6803F40063B7
:104CE800B3F5006F17D1BB6B13F5803F0BD0BB6BCF
:104CF800012B08D0BB6B082B05D0BB6B102B02D047
:104D0800BB6B202B07D17B681B685A687B681B68C4
:104D180042F480525A6000237B617B681B685B69A0
:104D28007B617B681B689B697B617B6932E07B6880
:104D38001B681A687B681B6842F480621A607B688B
:104D48001B685B6803F40063B3F5006F17D1BB6B96
:104D580013F5803F0BD0BB6B012B08D0BB6B082B26
:104D680005D0BB6B102B02D0BB6B202B07D17B6807
:104D78001B685A687B681B6842F480525A6000239B
:104D88003B617B681B685B693B617B681B689B694F
:104D98003B613B697B6800221A650BE00023FB60DE
:104DA8007B681B685B69FB607B681B689B69FB60B1
:104DB800FB68FFE700BF4437BD465DF8047B7047DA
:104DC80080B584B000AF78607B6893F83D30FB73A2
:104DD8007B685B8D9BB2002B2BD07B685B6A1A7853
:104DE8007B681B681A617B685B6A5A1C7B685A621D
:104DF8007B685B8D9BB2013B9AB27B685A857B6866
:104E08005B8D9BB2002B14D1FB7B292B11D17B68C6
:104E18001B685A687B681B6822F480625A607B684A
:104E280021221A637B68282283F83D207868FFF7DF
:104E3800E7F900BF1037BD4680BD80B483B000AF2E
:104E480078607B685B8D9BB2002B11D07B685B6AB6
:104E58001A787B681B681A617B685B6A5A1C7B68D6
:104E68005A627B685B8D9BB2013B9AB27B685A851C
:104E780000BF0C37BD465DF8047B704780B584B031
:104E880000AF78607B6893F83D30FB737B685B8D7F
:104E98009BB2002B2CD07B681B681A697B685B6A05
:104EA800D2B21A707B685B6A5A1C7B685A627B684C
:104EB8005B8D9BB2013B9AB27B685A857B685B8DA0
:104EC8009BB2002B14D1FB7B2A2B11D17B681B686A
:104ED8005A687B681B6822F480625A607B682222C9
:104EE8001A637B68282283F83D207868FFF792F9D7
:104EF80000BF1037BD4680BD80B483B000AF786076
:104F08007B685B8D9BB2002B12D07B681B681A698B
:104F18007B685B6AD2B21A707B685B6A5A1C7B68D2
:104F28005A627B685B8D9BB2013B9AB27B685A855B
:104F380000BF0C37BD465DF8047B704780B584B070
:104F480000AF786039600023FB737B6893F83D30CD
:104F5800DBB203F02803282B27D17B681B685A682B
:104F68007B681B6822F480625A603B689B0803F0E8
:104F78000103002B01D10123FB733B68DB0903F01C
:104F88000103002B03D17B68DB68BB8102E07B68EF
:104F98009B69BB817B68002283F83C20BA89FB7B34
:104FA80019467868FFF740F90EE00023BB607B687C
:104FB8001B685B69BB607B681B689B69BB60BB68DF
:104FC8007B68002283F83C2000BF1037BD4680BDB7
:104FD80080B584B000AF78607B6893F83D30FB7390
:104FE8007B681B685A687B681B6822F4E0625A6019
:104FF8000023BB607B681B685B69BB607B681B68C0
:105008001A687B681B6842F001021A60BB687B68FB
:105018001B681A687B681B6822F480621A607B68C8
:105028001B685B6803F40063B3F5006F72D1FB7B08
:10503800222B02D0FB7B2A2B35D17B689B6B1B680C
:105048005B689AB27B685A857B685B8D9BB2002B44
:1050580005D07B681B6C43F004027B681A647B688C
:105068001B685A687B681B6822F400625A607B6878
:105078009B6B1846FDF78CFF0346012B49D07B68D4
:105088009B6B694A1A657B689B6B1846FDF7D4FDD4
:105098000346002B3DD07B689B6B1B6D7A68926B37
:1050A8001046984735E07B685B6B1B685B689AB273
:1050B8007B685A857B685B8D9BB2002B05D07B682B
:1050C8001B6C43F004027B681A647B681B685A688F
:1050D8007B681B6822F400625A607B685B6B184629
:1050E800FDF756FF0346012B14D07B685B6B4E4AD5
:1050F8001A657B685B6B1846FDF79EFD0346002B1F
:1051080008D07B685B6B1B6D7A68526B10469847BA
:1051180000E000BF7B685B8D9BB2002B3ED07B68B4
:105128001B685B6903F00403042B12D17B681B68BE
:105138001A697B685B6AD2B21A707B685B6A5A1C10
:105148007B685A627B685B8D9BB2013B9AB27B6835
:105158005A857B681B685B6903F04003402B12D1BA
:105168007B681B681A697B685B6AD2B21A707B68B5
:105178005B6A5A1C7B685A627B685B8D9BB2013BF9
:105188009AB27B685A857B685B8D9BB2002B05D0F1
:105198007B681B6C43F004027B681A647B681B6C99
:1051A800002B03D0786800F0B3F839E0FB7B2A2B9A
:1051B80009D17B6800221A637B68282283F83D2086
:1051C8007868FFF727F87B6893F83D30DBB2282B27
:1051D80011D17B68154ADA627B6800221A637B6802
:1051E800202283F83D207B68002283F83E207868DF
:1051F800FFF728F814E07B681B6B222B02D0FB7B9F
:10520800222B0DD17B6800221A637B68202283F849
:105218003D207B68002283F83E207868FEF7FAFF7D
:1052280000BF1037BD4680BD1D5800080000FFFFB5
:1052380080B584B000AF78607B6893F83D30FB732D
:105248007B68DB6ABB60BB68082B02D0BB68202B7D
:1052580029D1FB7B282B26D17B682C4ADA627B6814
:105268001B685A687B681B6822F4E0625A607B6896
:105278001B686FF480625A617B681B681A687B68D8
:105288001B6822F480621A607B6800221A637B68BC
:10529800202283F83D207B68002283F83E2078682E
:1052A800FEF7D0FF2EE0FB7B212B26D17B68174A27
:1052B800DA627B6821221A637B68202283F83D200A
:1052C8007B68002283F83E207B681B685A687B68ED
:1052D8001B6822F4E0625A607B681B686FF4806286
:1052E8005A617B681B681A687B681B6822F48062B5
:1052F8001A607868FEF784FF04E07B681B686FF427
:1053080080625A6100BF1037BD4680BD0000FFFFB4
:1053180080B584B000AF78607B6893F83D30FB734C
:105328007B6893F83E30BB73BB7B102B02D0BB7BF2
:10533800402B0AD1FB7B222B07D17B681B681A689C
:105348007B681B6822F400621A60FB7B03F0280369
:10535800282B07D17B6800221A637B68282283F8F0
:105368003D2015E07B681B685B6803F40063B3F5B8
:10537800006F0AD0FB7B602B07D07B68202283F864
:105388003D207B68002283F83E207B6800221A6358
:105398007B681B685B6803F40063B3F5006F62D138
:1053A8007B681B685A687B681B6822F400625A6035
:1053B8007B685B6B93F83530DBB2012B20D07B68C0
:1053C8005B6B6A4A1A657B685B6B1846FDF734FCB1
:1053D8000346002B00F089807B681B681A687B688D
:1053E8001B6822F001021A607B68202283F83D20A6
:1053F8007B685B6B1B6D7A68526B1046984774E04C
:105408007B689B6B594A1A657B689B6B1846FDF74E
:1054180013FC0346002B68D07B681B685B6903F0AC
:105428004003402B0BD17B681B681A697B685B6A59
:10543800D2B21A707B685B6A5A1C7B685A627B68B6
:105448001B681A687B681B6822F001021A607B6877
:10545800202283F83D207B689B6B1B6D7A68926BDA
:105468001046984741E07B6893F83D30DBB2602BEB
:1054780025D17B68202283F83D207B6800221A64AE
:105488007B681B685B6903F04003402B0BD17B688A
:105498001B681A697B685B6AD2B21A707B685B6AA0
:1054A8005A1C7B685A627B681B681A687B681B6891
:1054B80022F001021A607868FEF7ECFE15E07B68BE
:1054C8001B685B6903F04003402B0BD17B681B68AA
:1054D8001A697B685B6AD2B21A707B685B6A5A1C6D
:1054E8007B685A627868FEF7CBFE7B681B6CBB60F2
:1054F800BB6803F00103002B0ED1BB6803F0020365
:10550800002B09D1BB6803F00403002B04D1BB684E
:1055180003F00803002B07D07B681B685A687B6878
:105528001B6822F4E0625A607B6893F83D30FB7395
:105538007B681B6C03F00403042B13D1FB7B282B23
:1055480010D17B680A4ADA627B6800221A637B689A
:10555800202283F83D207B68002283F83E2078686B
:10556800FEF770FE00BF1037BD4680BD1D5800080D
:105578000000FFFF80B588B002AFF8607A603B603A
:105588000B467B81FB68DB6A7B617B69082B06D055
:105598007B69012B03D07B6913F5803F08D1FB6839
:1055A8001B681A68FB681B6842F480721A600BE07B
:1055B800FB681B6B122B07D1FB681B681A68FB681A
:1055C8001B6842F480721A603B6800937B68002273
:1055D8004FF00111F86800F0C5F90346002B0DD013
:1055E800FB681B681B6803F48073B3F5807F03D1E5
:1055F800FB684FF400721A64032335E0FB681B69EB
:10560800B3F5804F08D17B89DBB21A46FB681B686B
:1056180002F0FE021A611BE07B89DB11DBB203F0AA
:105628000603DBB263F00F03DAB2FB681B681A618A
:105638003B687A680E49F86800F0EBF90346002BDE
:1056480001D0012310E07B89DAB2FB681B681A617C
:105658003B687A680749F86800F0DBF90346002BD5
:1056680001D0012300E0002318461837BD4680BD4D
:10567800080001000200010080B588B002AFF860A0
:105688007A603B600B467B81FB68DB6A7B61FB6869
:105698001B681A68FB681B6842F480621A607B69A1
:1056A800082B06D07B69012B03D07B6913F5803F5B
:1056B80008D1FB681B681A68FB681B6842F4807293
:1056C8001A600BE0FB681B6B112B07D1FB681B688A
:1056D8001A68FB681B6842F480721A603B68009382
:1056E8007B6800224FF00111F86800F03BF903468F
:1056F800002B0DD0FB681B681B6803F48073B3F59F
:10570800807F03D1FB684FF400721A64032379E0A9
:10571800FB681B69B3F5804F08D17B89DBB243F086
:105728000103DAB2FB681B681A615FE07B89DB1151
:10573800DBB203F00603DBB263F00F03DAB2FB68F7
:105748001B681A613B687A683049F86800F061F9AB
:105758000346002B01D0012354E07B89DAB2FB68B1
:105768001B681A613B687A682949F86800F051F9A2
:105778000346002B01D0012344E000233B61FB6872
:105788001B685B693B61FB681B689B693B613B6904
:10579800FB681B681A68FB681B6842F480721A6011
:1057A8003B6800937B6800224FF00111F86800F015
:1057B800D9F80346002B0DD0FB681B681B6803F45F
:1057C8008073B3F5807F03D1FB684FF400721A64CD
:1057D800032317E07B89DB11DBB203F00603DBB29E
:1057E80063F00E03DAB2FB681B681A613B687A68DB
:1057F8000749F86800F00DF90346002B01D0012392
:1058080000E0002318461837BD4680BD0800010097
:105818000200010080B586B000AF78600023FB600D
:105828007B689B6B7B617B6993F83D30FB744B4BCA
:105838001B68DB084A4AA2FB03231A0A13469B008B
:105848001344DA00D31AFB60FB68002B06D17B698E
:105858001B6C43F020027B691A640AE0FB68013B79
:10586800FB607B691B681B6803F40073B3F5007F5A
:10587800EAD07B695B6B002B03D07B695B6B0022F2
:10588800DA637B699B6B002B03D07B699B6B0022DF
:10589800DA637B691B681A687B691B6822F480627B
:1058A8001A607B6900225A857B695B6B002B03D0E9
:1058B8007B695B6B00221A657B699B6B002B03D0AD
:1058C8007B699B6B00221A657B691B681A687B6978
:1058D8001B6822F001021A607B6993F83D30DBB245
:1058E800602B0ED17B69202283F83D207B69002242
:1058F80083F83E207B6900221A647869FEF7CAFCA7
:1059080027E0FB7C03F02803282B17D17B691B6851
:105918001A687B691B6842F001021A607B691B6880
:105928001A687B691B6842F480621A607B690022EE
:105938001A637B69282283F83D2007E07B692022CF
:1059480083F83D207B69002283F83E207869FEF7C2
:1059580097FC00BF1837BD4680BD00BF000000207F
:1059680089B5F81480B584B000AFF860B9603B60C1
:105978001346FB7125E03B68B3F1FF3F21D0FCF7EC
:1059880013FF0246BB69D31A3A689A4202D33B68AE
:10599800002B16D1FB6800221A63FB68202283F8CB
:1059A8003D20FB68002283F83E20FB681B6C43F017
:1059B8002002FB681A64FB68002283F83C2001235C
:1059C80023E0BB681B0CDBB2012B0DD1FB681B6805
:1059D8005B69DA43BB6813409BB2002B0CBF012301
:1059E8000023DBB21A460CE0FB681B689B69DA43AC
:1059F800BB6813409BB2002B0CBF01230023DBB212
:105A08001A46FB799A42B6D0002318461037BD468D
:105A180080BD80B584B000AFF860B9607A603B6043
:105A280051E0FB681B685B6903F48063B3F5806F22
:105A380023D1FB681B681A68FB681B6842F4007274
:105A48001A60FB681B686FF480625A61FB68002269
:105A58001A63FB68202283F83D20FB68002283F844
:105A68003E20FB681B6C43F00402FB681A64FB6869
:105A7800002283F83C20012346E07B68B3F1FF3F16
:105A880021D0FCF791FE02463B68D31A7A689A4205
:105A980002D37B68002B16D1FB6800221A63FB68CF
:105AA800202283F83D20FB68002283F83E20FB6813
:105AB8001B6C43F02002FB681A64FB68002283F821
:105AC8003C20012320E0BB681B0CDBB2012B0CD16E
